{
  "_format": "hh-sol-artifact-1",
  "contractName": "Election",
  "sourceName": "contracts/Election.sol",
  "abi": [
    {
      "inputs": [],
      "stateMutability": "nonpayable",
      "type": "constructor"
    },
    {
      "anonymous": false,
      "inputs": [
        {
          "indexed": false,
          "internalType": "uint256",
          "name": "canditateId",
          "type": "uint256"
        },
        {
          "indexed": false,
          "internalType": "string",
          "name": "name",
          "type": "string"
        },
        {
          "indexed": false,
          "internalType": "address",
          "name": "candidateAddress",
          "type": "address"
        },
        {
          "indexed": false,
          "internalType": "uint256",
          "name": "voteCount",
          "type": "uint256"
        }
      ],
      "name": "LogCandidate",
      "type": "event"
    },
    {
      "anonymous": false,
      "inputs": [
        {
          "indexed": false,
          "internalType": "bool",
          "name": "voted",
          "type": "bool"
        },
        {
          "indexed": false,
          "internalType": "uint256",
          "name": "weight",
          "type": "uint256"
        },
        {
          "indexed": false,
          "internalType": "uint256",
          "name": "vote",
          "type": "uint256"
        },
        {
          "indexed": false,
          "internalType": "address",
          "name": "voterAddress",
          "type": "address"
        }
      ],
      "name": "LogVoter",
      "type": "event"
    },
    {
      "inputs": [
        {
          "internalType": "string",
          "name": "_name",
          "type": "string"
        },
        {
          "internalType": "address",
          "name": "_candidateAddress",
          "type": "address"
        }
      ],
      "name": "addCandidate",
      "outputs": [],
      "stateMutability": "nonpayable",
      "type": "function"
    },
    {
      "inputs": [
        {
          "internalType": "uint256",
          "name": "",
          "type": "uint256"
        }
      ],
      "name": "candidateAddresses",
      "outputs": [
        {
          "internalType": "address",
          "name": "",
          "type": "address"
        }
      ],
      "stateMutability": "view",
      "type": "function"
    },
    {
      "inputs": [],
      "name": "candidateId",
      "outputs": [
        {
          "internalType": "uint256",
          "name": "_value",
          "type": "uint256"
        }
      ],
      "stateMutability": "view",
      "type": "function"
    },
    {
      "inputs": [
        {
          "internalType": "address",
          "name": "",
          "type": "address"
        }
      ],
      "name": "candidates",
      "outputs": [
        {
          "internalType": "uint256",
          "name": "canditateId",
          "type": "uint256"
        },
        {
          "internalType": "string",
          "name": "name",
          "type": "string"
        },
        {
          "internalType": "address",
          "name": "candidateAddress",
          "type": "address"
        },
        {
          "internalType": "uint256",
          "name": "voteCount",
          "type": "uint256"
        }
      ],
      "stateMutability": "view",
      "type": "function"
    },
    {
      "inputs": [],
      "name": "chairperson",
      "outputs": [
        {
          "internalType": "address",
          "name": "",
          "type": "address"
        }
      ],
      "stateMutability": "view",
      "type": "function"
    },
    {
      "inputs": [
        {
          "internalType": "uint256",
          "name": "_endTime",
          "type": "uint256"
        }
      ],
      "name": "extendVotingEndTime",
      "outputs": [],
      "stateMutability": "nonpayable",
      "type": "function"
    },
    {
      "inputs": [
        {
          "internalType": "address",
          "name": "_candidateAddress",
          "type": "address"
        }
      ],
      "name": "getCandidateData",
      "outputs": [
        {
          "internalType": "uint256",
          "name": "",
          "type": "uint256"
        },
        {
          "internalType": "string",
          "name": "",
          "type": "string"
        },
        {
          "internalType": "address",
          "name": "",
          "type": "address"
        },
        {
          "internalType": "uint256",
          "name": "",
          "type": "uint256"
        }
      ],
      "stateMutability": "view",
      "type": "function"
    },
    {
      "inputs": [],
      "name": "getCandidateLength",
      "outputs": [
        {
          "internalType": "uint256",
          "name": "",
          "type": "uint256"
        }
      ],
      "stateMutability": "view",
      "type": "function"
    },
    {
      "inputs": [],
      "name": "getCandidates",
      "outputs": [
        {
          "internalType": "address[]",
          "name": "",
          "type": "address[]"
        }
      ],
      "stateMutability": "view",
      "type": "function"
    },
    {
      "inputs": [],
      "name": "getVotedVoters",
      "outputs": [
        {
          "internalType": "address[]",
          "name": "",
          "type": "address[]"
        }
      ],
      "stateMutability": "view",
      "type": "function"
    },
    {
      "inputs": [
        {
          "internalType": "address",
          "name": "_voterAddress",
          "type": "address"
        }
      ],
      "name": "getVoterData",
      "outputs": [
        {
          "internalType": "uint256",
          "name": "",
          "type": "uint256"
        },
        {
          "internalType": "bool",
          "name": "",
          "type": "bool"
        },
        {
          "internalType": "uint256",
          "name": "",
          "type": "uint256"
        },
        {
          "internalType": "uint256",
          "name": "",
          "type": "uint256"
        },
        {
          "internalType": "address",
          "name": "",
          "type": "address"
        },
        {
          "internalType": "string",
          "name": "",
          "type": "string"
        }
      ],
      "stateMutability": "view",
      "type": "function"
    },
    {
      "inputs": [],
      "name": "getVoterLength",
      "outputs": [
        {
          "internalType": "uint256",
          "name": "",
          "type": "uint256"
        }
      ],
      "stateMutability": "view",
      "type": "function"
    },
    {
      "inputs": [],
      "name": "getVoterList",
      "outputs": [
        {
          "internalType": "address[]",
          "name": "",
          "type": "address[]"
        }
      ],
      "stateMutability": "view",
      "type": "function"
    },
    {
      "inputs": [],
      "name": "getVotingEndTime",
      "outputs": [
        {
          "internalType": "uint256",
          "name": "_endTime",
          "type": "uint256"
        }
      ],
      "stateMutability": "view",
      "type": "function"
    },
    {
      "inputs": [],
      "name": "getWinner",
      "outputs": [
        {
          "internalType": "address",
          "name": "_winningCandidate",
          "type": "address"
        },
        {
          "internalType": "uint256",
          "name": "_voteCount",
          "type": "uint256"
        }
      ],
      "stateMutability": "view",
      "type": "function"
    },
    {
      "inputs": [
        {
          "internalType": "address",
          "name": "_voterAddress",
          "type": "address"
        }
      ],
      "name": "giveVoterRight",
      "outputs": [],
      "stateMutability": "nonpayable",
      "type": "function"
    },
    {
      "inputs": [
        {
          "internalType": "uint256",
          "name": "_startime",
          "type": "uint256"
        }
      ],
      "name": "updateVotingStartTime",
      "outputs": [],
      "stateMutability": "nonpayable",
      "type": "function"
    },
    {
      "inputs": [
        {
          "internalType": "address",
          "name": "_candidateAddress",
          "type": "address"
        },
        {
          "internalType": "uint256",
          "name": "_candidate_id",
          "type": "uint256"
        }
      ],
      "name": "vote",
      "outputs": [],
      "stateMutability": "nonpayable",
      "type": "function"
    },
    {
      "inputs": [
        {
          "internalType": "uint256",
          "name": "",
          "type": "uint256"
        }
      ],
      "name": "votedVoters",
      "outputs": [
        {
          "internalType": "address",
          "name": "",
          "type": "address"
        }
      ],
      "stateMutability": "view",
      "type": "function"
    },
    {
      "inputs": [
        {
          "internalType": "address",
          "name": "",
          "type": "address"
        }
      ],
      "name": "voters",
      "outputs": [
        {
          "internalType": "uint256",
          "name": "voterId",
          "type": "uint256"
        },
        {
          "internalType": "bool",
          "name": "voted",
          "type": "bool"
        },
        {
          "internalType": "uint256",
          "name": "weight",
          "type": "uint256"
        },
        {
          "internalType": "uint256",
          "name": "vote",
          "type": "uint256"
        },
        {
          "internalType": "address",
          "name": "voterAddress",
          "type": "address"
        },
        {
          "internalType": "string",
          "name": "voterName",
          "type": "string"
        }
      ],
      "stateMutability": "view",
      "type": "function"
    },
    {
      "inputs": [
        {
          "internalType": "uint256",
          "name": "",
          "type": "uint256"
        }
      ],
      "name": "votersAddresses",
      "outputs": [
        {
          "internalType": "address",
          "name": "",
          "type": "address"
        }
      ],
      "stateMutability": "view",
      "type": "function"
    },
    {
      "inputs": [],
      "name": "votersId",
      "outputs": [
        {
          "internalType": "uint256",
          "name": "_value",
          "type": "uint256"
        }
      ],
      "stateMutability": "view",
      "type": "function"
    }
  ],
  "bytecode": "0x6080604052426008553480156200001557600080fd5b5033600760006101000a81548173ffffffffffffffffffffffffffffffffffffffff021916908373ffffffffffffffffffffffffffffffffffffffff1602179055506078600854620000689190620000ad565b600981905550620000e8565b6000819050919050565b7f4e487b7100000000000000000000000000000000000000000000000000000000600052601160045260246000fd5b6000620000ba8262000074565b9150620000c78362000074565b9250828201905080821115620000e257620000e16200007e565b5b92915050565b6129b980620000f86000396000f3fe608060405234801561001057600080fd5b50600436106101425760003560e01c80638ab66a90116100b8578063b1bf87b01161007c578063b1bf87b01461039c578063b28d92ae146103ba578063d55d73c5146103d8578063e1208daa14610408578063e243665114610426578063f7522a831461044257610142565b80638ab66a90146102c25780638e7ea5b2146102f55780638fb4cd80146103145780639f91e6bf14610349578063a3ec138d1461036757610142565b80632a466ac71161010a5780632a466ac7146101ed5780632e4176cf14610220578063453f37831461023e5780634a2a84c51461025a5780635f74bbde146102765780637831ffb31461029257610142565b806305ad45a41461014757806306a49fce14610165578063189d2958146101835780631af10679146101a15780631e2a7679146101d1575b600080fd5b61014f610460565b60405161015c9190611b05565b60405180910390f35b61016d61046d565b60405161017a9190611c10565b60405180910390f35b61018b6104fb565b6040516101989190611c10565b60405180910390f35b6101bb60048036038101906101b69190611c72565b610589565b6040516101c89190611cae565b60405180910390f35b6101eb60048036038101906101e69190611c72565b6105c8565b005b61020760048036038101906102029190611cf5565b610683565b6040516102179493929190611db2565b60405180910390f35b610228610850565b6040516102359190611cae565b60405180910390f35b61025860048036038101906102539190611c72565b610876565b005b610274600480360381019061026f9190611f33565b610922565b005b610290600480360381019061028b9190611f8f565b610d07565b005b6102ac60048036038101906102a79190611c72565b61106a565b6040516102b99190611cae565b60405180910390f35b6102dc60048036038101906102d79190611cf5565b6110a9565b6040516102ec9493929190611db2565b60405180910390f35b6102fd611181565b60405161030b929190611fcf565b60405180910390f35b61032e60048036038101906103299190611cf5565b6113db565b60405161034096959493929190612013565b60405180910390f35b610351611644565b60405161035e9190611b05565b60405180910390f35b610381600480360381019061037c9190611cf5565b611650565b60405161039396959493929190612013565b60405180910390f35b6103a4611741565b6040516103b19190611b05565b60405180910390f35b6103c261174b565b6040516103cf9190611c10565b60405180910390f35b6103f260048036038101906103ed9190611c72565b6117d9565b6040516103ff9190611cae565b60405180910390f35b610410611818565b60405161041d9190611b05565b60405180910390f35b610440600480360381019061043b9190611cf5565b611824565b005b61044a611abb565b6040516104579190611b05565b60405180910390f35b6000600580549050905090565b606060028054806020026020016040519081016040528092919081815260200182805480156104f157602002820191906000526020600020905b8160009054906101000a900473ffffffffffffffffffffffffffffffffffffffff1673ffffffffffffffffffffffffffffffffffffffff16815260200190600101908083116104a7575b5050505050905090565b6060600480548060200260200160405190810160405280929190818152602001828054801561057f57602002820191906000526020600020905b8160009054906101000a900473ffffffffffffffffffffffffffffffffffffffff1673ffffffffffffffffffffffffffffffffffffffff1681526020019060010190808311610535575b5050505050905090565b6005818154811061059957600080fd5b906000526020600020016000915054906101000a900473ffffffffffffffffffffffffffffffffffffffff1681565b600760009054906101000a900473ffffffffffffffffffffffffffffffffffffffff1673ffffffffffffffffffffffffffffffffffffffff163373ffffffffffffffffffffffffffffffffffffffff1614610658576040517f08c379a000000000000000000000000000000000000000000000000000000000815260040161064f906120c7565b60405180910390fd5b80600854101561066757600080fd5b80600860008282546106799190612116565b9250508190555050565b60006060600080600360008673ffffffffffffffffffffffffffffffffffffffff1673ffffffffffffffffffffffffffffffffffffffff16815260200190815260200160002060000154600360008773ffffffffffffffffffffffffffffffffffffffff1673ffffffffffffffffffffffffffffffffffffffff168152602001908152602001600020600101600360008873ffffffffffffffffffffffffffffffffffffffff1673ffffffffffffffffffffffffffffffffffffffff16815260200190815260200160002060020160009054906101000a900473ffffffffffffffffffffffffffffffffffffffff16600360008973ffffffffffffffffffffffffffffffffffffffff1673ffffffffffffffffffffffffffffffffffffffff168152602001908152602001600020600301548280546107c190612179565b80601f01602080910402602001604051908101604052809291908181526020018280546107ed90612179565b801561083a5780601f1061080f5761010080835404028352916020019161083a565b820191906000526020600020905b81548152906001019060200180831161081d57829003601f168201915b5050505050925093509350935093509193509193565b600760009054906101000a900473ffffffffffffffffffffffffffffffffffffffff1681565b600760009054906101000a900473ffffffffffffffffffffffffffffffffffffffff1673ffffffffffffffffffffffffffffffffffffffff163373ffffffffffffffffffffffffffffffffffffffff1614610906576040517f08c379a00000000000000000000000000000000000000000000000000000000081526004016108fd906120c7565b60405180910390fd5b80600960008282546109189190612116565b9250508190555050565b600760009054906101000a900473ffffffffffffffffffffffffffffffffffffffff1673ffffffffffffffffffffffffffffffffffffffff163373ffffffffffffffffffffffffffffffffffffffff16146109b2576040517f08c379a00000000000000000000000000000000000000000000000000000000081526004016109a9906120c7565b60405180910390fd5b6008544210156109f7576040517f08c379a00000000000000000000000000000000000000000000000000000000081526004016109ee906121f6565b60405180910390fd5b600954421115610a3c576040517f08c379a0000000000000000000000000000000000000000000000000000000008152600401610a3390612262565b60405180910390fd5b600073ffffffffffffffffffffffffffffffffffffffff16600360008373ffffffffffffffffffffffffffffffffffffffff1673ffffffffffffffffffffffffffffffffffffffff16815260200190815260200160002060020160009054906101000a900473ffffffffffffffffffffffffffffffffffffffff1673ffffffffffffffffffffffffffffffffffffffff1614610b0d576040517f08c379a0000000000000000000000000000000000000000000000000000000008152600401610b04906122ce565b60405180910390fd5b600760009054906101000a900473ffffffffffffffffffffffffffffffffffffffff1673ffffffffffffffffffffffffffffffffffffffff168173ffffffffffffffffffffffffffffffffffffffff1603610b9d576040517f08c379a0000000000000000000000000000000000000000000000000000000008152600401610b9490612360565b60405180910390fd5b610ba76000611ac8565b6000610bb36000611ade565b90506000600360008473ffffffffffffffffffffffffffffffffffffffff1673ffffffffffffffffffffffffffffffffffffffff1681526020019081526020016000209050818160000181905550828160020160006101000a81548173ffffffffffffffffffffffffffffffffffffffff021916908373ffffffffffffffffffffffffffffffffffffffff16021790555083816001019081610c55919061252c565b50600081600301819055506002839080600181540180825580915050600190039060005260206000200160009091909190916101000a81548173ffffffffffffffffffffffffffffffffffffffff021916908373ffffffffffffffffffffffffffffffffffffffff1602179055507ff26b637849c98b6e72fee9c6dd94b3af6df96cbb23d673fee747a099b395a9298285856000604051610cf99493929190612639565b60405180910390a150505050565b600854421015610d4c576040517f08c379a0000000000000000000000000000000000000000000000000000000008152600401610d43906121f6565b60405180910390fd5b600954421115610d91576040517f08c379a0000000000000000000000000000000000000000000000000000000008152600401610d8890612262565b60405180910390fd5b6000600660003373ffffffffffffffffffffffffffffffffffffffff1673ffffffffffffffffffffffffffffffffffffffff16815260200190815260200160002090508060010160009054906101000a900460ff1615610e26576040517f08c379a0000000000000000000000000000000000000000000000000000000008152600401610e1d906126d1565b60405180910390fd5b6000816002015403610e6d576040517f08c379a0000000000000000000000000000000000000000000000000000000008152600401610e649061273d565b60405180910390fd5b600360008473ffffffffffffffffffffffffffffffffffffffff1673ffffffffffffffffffffffffffffffffffffffff16815260200190815260200160002060020160009054906101000a900473ffffffffffffffffffffffffffffffffffffffff1673ffffffffffffffffffffffffffffffffffffffff168373ffffffffffffffffffffffffffffffffffffffff1614610f3d576040517f08c379a0000000000000000000000000000000000000000000000000000000008152600401610f34906127a9565b60405180910390fd5b60018160010160006101000a81548160ff0219169083151502179055508181600301819055506004339080600181540180825580915050600190039060005260206000200160009091909190916101000a81548173ffffffffffffffffffffffffffffffffffffffff021916908373ffffffffffffffffffffffffffffffffffffffff1602179055508060020154600360008573ffffffffffffffffffffffffffffffffffffffff1673ffffffffffffffffffffffffffffffffffffffff168152602001908152602001600020600301600082825461101c9190612116565b925050819055507fc91583fb8114be4deb397fc422cb0accf56988f13616324fc5421a1b21705eb460018260020154843360405161105d94939291906127c9565b60405180910390a1505050565b6004818154811061107a57600080fd5b906000526020600020016000915054906101000a900473ffffffffffffffffffffffffffffffffffffffff1681565b60036020528060005260406000206000915090508060000154908060010180546110d290612179565b80601f01602080910402602001604051908101604052809291908181526020018280546110fe90612179565b801561114b5780601f106111205761010080835404028352916020019161114b565b820191906000526020600020905b81548152906001019060200180831161112e57829003601f168201915b5050505050908060020160009054906101000a900473ffffffffffffffffffffffffffffffffffffffff16908060030154905084565b600080600760009054906101000a900473ffffffffffffffffffffffffffffffffffffffff1673ffffffffffffffffffffffffffffffffffffffff163373ffffffffffffffffffffffffffffffffffffffff1614611214576040517f08c379a000000000000000000000000000000000000000000000000000000000815260040161120b906120c7565b60405180910390fd5b4260095410611258576040517f08c379a000000000000000000000000000000000000000000000000000000000815260040161124f90612880565b60405180910390fd5b60008080600090505b6002805490508110156113ce57826003600060028481548110611287576112866128a0565b5b9060005260206000200160009054906101000a900473ffffffffffffffffffffffffffffffffffffffff1673ffffffffffffffffffffffffffffffffffffffff1673ffffffffffffffffffffffffffffffffffffffff1681526020019081526020016000206003015411156113bb57600360006002838154811061130e5761130d6128a0565b5b9060005260206000200160009054906101000a900473ffffffffffffffffffffffffffffffffffffffff1673ffffffffffffffffffffffffffffffffffffffff1673ffffffffffffffffffffffffffffffffffffffff1681526020019081526020016000206003015492506002818154811061138d5761138c6128a0565b5b9060005260206000200160009054906101000a900473ffffffffffffffffffffffffffffffffffffffff1691505b80806113c6906128cf565b915050611261565b5080829350935050509091565b60008060008060006060600660008873ffffffffffffffffffffffffffffffffffffffff1673ffffffffffffffffffffffffffffffffffffffff16815260200190815260200160002060000154600660008973ffffffffffffffffffffffffffffffffffffffff1673ffffffffffffffffffffffffffffffffffffffff16815260200190815260200160002060010160009054906101000a900460ff16600660008a73ffffffffffffffffffffffffffffffffffffffff1673ffffffffffffffffffffffffffffffffffffffff16815260200190815260200160002060020154600660008b73ffffffffffffffffffffffffffffffffffffffff1673ffffffffffffffffffffffffffffffffffffffff16815260200190815260200160002060030154600660008c73ffffffffffffffffffffffffffffffffffffffff1673ffffffffffffffffffffffffffffffffffffffff16815260200190815260200160002060040160009054906101000a900473ffffffffffffffffffffffffffffffffffffffff16600660008d73ffffffffffffffffffffffffffffffffffffffff1673ffffffffffffffffffffffffffffffffffffffff1681526020019081526020016000206005018080546115af90612179565b80601f01602080910402602001604051908101604052809291908181526020018280546115db90612179565b80156116285780601f106115fd57610100808354040283529160200191611628565b820191906000526020600020905b81548152906001019060200180831161160b57829003601f168201915b5050505050905095509550955095509550955091939550919395565b60008060000154905081565b60066020528060005260406000206000915090508060000154908060010160009054906101000a900460ff16908060020154908060030154908060040160009054906101000a900473ffffffffffffffffffffffffffffffffffffffff16908060050180546116be90612179565b80601f01602080910402602001604051908101604052809291908181526020018280546116ea90612179565b80156117375780601f1061170c57610100808354040283529160200191611737565b820191906000526020600020905b81548152906001019060200180831161171a57829003601f168201915b5050505050905086565b6000600954905090565b606060058054806020026020016040519081016040528092919081815260200182805480156117cf57602002820191906000526020600020905b8160009054906101000a900473ffffffffffffffffffffffffffffffffffffffff1673ffffffffffffffffffffffffffffffffffffffff1681526020019060010190808311611785575b5050505050905090565b600281815481106117e957600080fd5b906000526020600020016000915054906101000a900473ffffffffffffffffffffffffffffffffffffffff1681565b60018060000154905081565b600760009054906101000a900473ffffffffffffffffffffffffffffffffffffffff1673ffffffffffffffffffffffffffffffffffffffff163373ffffffffffffffffffffffffffffffffffffffff16146118b4576040517f08c379a00000000000000000000000000000000000000000000000000000000081526004016118ab906120c7565b60405180910390fd5b6008544210156118f9576040517f08c379a00000000000000000000000000000000000000000000000000000000081526004016118f0906121f6565b60405180910390fd5b60095442111561193e576040517f08c379a000000000000000000000000000000000000000000000000000000000815260040161193590612262565b60405180910390fd5b6119486001611ac8565b60006119546001611ade565b90506000600660008473ffffffffffffffffffffffffffffffffffffffff1673ffffffffffffffffffffffffffffffffffffffff168152602001908152602001600020905060008160020154146119e0576040517f08c379a00000000000000000000000000000000000000000000000000000000081526004016119d790612963565b60405180910390fd5b81816000018190555060018160020181905550828160040160006101000a81548173ffffffffffffffffffffffffffffffffffffffff021916908373ffffffffffffffffffffffffffffffffffffffff16021790555060008160010160006101000a81548160ff0219169083151502179055506005839080600181540180825580915050600190039060005260206000200160009091909190916101000a81548173ffffffffffffffffffffffffffffffffffffffff021916908373ffffffffffffffffffffffffffffffffffffffff160217905550505050565b6000600280549050905090565b6001816000016000828254019250508190555050565b600081600001549050919050565b6000819050919050565b611aff81611aec565b82525050565b6000602082019050611b1a6000830184611af6565b92915050565b600081519050919050565b600082825260208201905092915050565b6000819050602082019050919050565b600073ffffffffffffffffffffffffffffffffffffffff82169050919050565b6000611b7782611b4c565b9050919050565b611b8781611b6c565b82525050565b6000611b998383611b7e565b60208301905092915050565b6000602082019050919050565b6000611bbd82611b20565b611bc78185611b2b565b9350611bd283611b3c565b8060005b83811015611c03578151611bea8882611b8d565b9750611bf583611ba5565b925050600181019050611bd6565b5085935050505092915050565b60006020820190508181036000830152611c2a8184611bb2565b905092915050565b6000604051905090565b600080fd5b600080fd5b611c4f81611aec565b8114611c5a57600080fd5b50565b600081359050611c6c81611c46565b92915050565b600060208284031215611c8857611c87611c3c565b5b6000611c9684828501611c5d565b91505092915050565b611ca881611b6c565b82525050565b6000602082019050611cc36000830184611c9f565b92915050565b611cd281611b6c565b8114611cdd57600080fd5b50565b600081359050611cef81611cc9565b92915050565b600060208284031215611d0b57611d0a611c3c565b5b6000611d1984828501611ce0565b91505092915050565b600081519050919050565b600082825260208201905092915050565b60005b83811015611d5c578082015181840152602081019050611d41565b60008484015250505050565b6000601f19601f8301169050919050565b6000611d8482611d22565b611d8e8185611d2d565b9350611d9e818560208601611d3e565b611da781611d68565b840191505092915050565b6000608082019050611dc76000830187611af6565b8181036020830152611dd98186611d79565b9050611de86040830185611c9f565b611df56060830184611af6565b95945050505050565b600080fd5b600080fd5b7f4e487b7100000000000000000000000000000000000000000000000000000000600052604160045260246000fd5b611e4082611d68565b810181811067ffffffffffffffff82111715611e5f57611e5e611e08565b5b80604052505050565b6000611e72611c32565b9050611e7e8282611e37565b919050565b600067ffffffffffffffff821115611e9e57611e9d611e08565b5b611ea782611d68565b9050602081019050919050565b82818337600083830152505050565b6000611ed6611ed184611e83565b611e68565b905082815260208101848484011115611ef257611ef1611e03565b5b611efd848285611eb4565b509392505050565b600082601f830112611f1a57611f19611dfe565b5b8135611f2a848260208601611ec3565b91505092915050565b60008060408385031215611f4a57611f49611c3c565b5b600083013567ffffffffffffffff811115611f6857611f67611c41565b5b611f7485828601611f05565b9250506020611f8585828601611ce0565b9150509250929050565b60008060408385031215611fa657611fa5611c3c565b5b6000611fb485828601611ce0565b9250506020611fc585828601611c5d565b9150509250929050565b6000604082019050611fe46000830185611c9f565b611ff16020830184611af6565b9392505050565b60008115159050919050565b61200d81611ff8565b82525050565b600060c0820190506120286000830189611af6565b6120356020830188612004565b6120426040830187611af6565b61204f6060830186611af6565b61205c6080830185611c9f565b81810360a083015261206e8184611d79565b9050979650505050505050565b7f596f7520617265206e6f7420746865206368616972706572736f6e0000000000600082015250565b60006120b1601b83611d2d565b91506120bc8261207b565b602082019050919050565b600060208201905081810360008301526120e0816120a4565b9050919050565b7f4e487b7100000000000000000000000000000000000000000000000000000000600052601160045260246000fd5b600061212182611aec565b915061212c83611aec565b9250828201905080821115612144576121436120e7565b5b92915050565b7f4e487b7100000000000000000000000000000000000000000000000000000000600052602260045260246000fd5b6000600282049050600182168061219157607f821691505b6020821081036121a4576121a361214a565b5b50919050565b7f566f74696e67204f6e676f696e67000000000000000000000000000000000000600082015250565b60006121e0600e83611d2d565b91506121eb826121aa565b602082019050919050565b6000602082019050818103600083015261220f816121d3565b9050919050565b7f566f74696e672068617320656e64656400000000000000000000000000000000600082015250565b600061224c601083611d2d565b915061225782612216565b602082019050919050565b6000602082019050818103600083015261227b8161223f565b9050919050565b7f63616e64696461746520616c7265616479207265676973746572656400000000600082015250565b60006122b8601c83611d2d565b91506122c382612282565b602082019050919050565b600060208201905081810360008301526122e7816122ab565b9050919050565b7f4368616972706572736f6e2063616e6e6f7420626520612063616e646964617460008201527f6500000000000000000000000000000000000000000000000000000000000000602082015250565b600061234a602183611d2d565b9150612355826122ee565b604082019050919050565b600060208201905081810360008301526123798161233d565b9050919050565b60008190508160005260206000209050919050565b60006020601f8301049050919050565b600082821b905092915050565b6000600883026123e27fffffffffffffffffffffffffffffffffffffffffffffffffffffffffffffffff826123a5565b6123ec86836123a5565b95508019841693508086168417925050509392505050565b6000819050919050565b600061242961242461241f84611aec565b612404565b611aec565b9050919050565b6000819050919050565b6124438361240e565b61245761244f82612430565b8484546123b2565b825550505050565b600090565b61246c61245f565b61247781848461243a565b505050565b5b8181101561249b57612490600082612464565b60018101905061247d565b5050565b601f8211156124e0576124b181612380565b6124ba84612395565b810160208510156124c9578190505b6124dd6124d585612395565b83018261247c565b50505b505050565b600082821c905092915050565b6000612503600019846008026124e5565b1980831691505092915050565b600061251c83836124f2565b9150826002028217905092915050565b61253582611d22565b67ffffffffffffffff81111561254e5761254d611e08565b5b6125588254612179565b61256382828561249f565b600060209050601f8311600181146125965760008415612584578287015190505b61258e8582612510565b8655506125f6565b601f1984166125a486612380565b60005b828110156125cc578489015182556001820191506020850194506020810190506125a7565b868310156125e957848901516125e5601f8916826124f2565b8355505b6001600288020188555050505b505050505050565b6000819050919050565b600061262361261e612619846125fe565b612404565b611aec565b9050919050565b61263381612608565b82525050565b600060808201905061264e6000830187611af6565b81810360208301526126608186611d79565b905061266f6040830185611c9f565b61267c606083018461262a565b95945050505050565b7f596f75206861766520616c726561647920766f74656400000000000000000000600082015250565b60006126bb601683611d2d565b91506126c682612685565b602082019050919050565b600060208201905081810360008301526126ea816126ae565b9050919050565b7f596f7520646f6e2774206861766520726967687420746f20766f746500000000600082015250565b6000612727601c83611d2d565b9150612732826126f1565b602082019050919050565b600060208201905081810360008301526127568161271a565b9050919050565b7f43616e64696461746520646f6573206e6f742065786973740000000000000000600082015250565b6000612793601883611d2d565b915061279e8261275d565b602082019050919050565b600060208201905081810360008301526127c281612786565b9050919050565b60006080820190506127de6000830187612004565b6127eb6020830186611af6565b6127f86040830185611af6565b6128056060830184611c9f565b95945050505050565b7f506c65617365207761697420666f7220766f74696e6720746f20656e6420746f60008201527f207365652074686520726573756c740000000000000000000000000000000000602082015250565b600061286a602f83611d2d565b91506128758261280e565b604082019050919050565b600060208201905081810360008301526128998161285d565b9050919050565b7f4e487b7100000000000000000000000000000000000000000000000000000000600052603260045260246000fd5b60006128da82611aec565b91507fffffffffffffffffffffffffffffffffffffffffffffffffffffffffffffffff820361290c5761290b6120e7565b5b600182019050919050565b7f596f75206861766520616c726561647920726567697374657265640000000000600082015250565b600061294d601b83611d2d565b915061295882612917565b602082019050919050565b6000602082019050818103600083015261297c81612940565b905091905056fea26469706673582212207583f42f5144ce4e72220d65be6080f7f69e7cd69525131c773b8c0c33f7aea064736f6c63430008110033",
  "linkReferences": {},
  "deployedLinkReferences": {}
}